:020000040800F2
:10000000000C00204501000809210008390F0008F4
:10001000E5200008C50A0008E140000800000000D3
:10002000000000000000000000000000CD2A0008D1
:100030006B0D000800000000D5280008312D0008D5
:100040005F0100085F0100085F0100085F01000810
:100050005F0100085F0100085F0100085F01000800
:100060005F0100085F0100085F0100085F010008F0
:100070005F0100085F010008710B00085F010008C4
:100080005F0100085F0100085F0100085F010008D0
:100090005F0100085F0100085F0100085F010008C0
:1000A0005F0100085F0100085F0100085F010008B0
:1000B000952D0008B52F0008F13100085F010008F8
:1000C0005F0100085F0100085F0100085F01000890
:1000D0005F010008DD3D0008913E00085F01000857
:1000E0005F0100085F0100085F0100085F01000870
:1000F0005F0100085F0100085F0100085F01000860
:100100005F0100085F0100085F0100085F0100084F
:10011000853A0008E93B0008793400085F010008CF
:100120005F0100085F0100085F0100085F0100082F
:10013000DFF80CD000F0B4FC00480047B9520008CA
:10014000000C00200648804706480047FEE7FEE70F
:10015000FEE7FEE7FEE7FEE7FEE7FEE7FEE7FEE777
:10016000352D000831010008421C10F8011B002940
:10017000FBD1801A704710B5002200E0521C835C4E
:100180008C5CA34201D1002BF8D1D8B2E1B2401A65
:1001900010BDF0B480EA0102D40F4200B2EB410F6F
:1001A00002D20246084611464A0042D0C30DDDB2D3
:1001B000C1F3C752AD1A202D35DAC1F3160141F44F
:1001C000000204B15242C5F1200602FA06F12A41AA
:1001D0001044B3EBD05F23D0C4B1012DA0EBC350CA
:1001E00009DCF0BC4FF0004202EAC352DBB200F57A
:1001F000000000F060BB400000F1807000EBC350D5
:10020000A0F1807040EAD170490009E0490841EA54
:10021000C071A0EBC35000F50000400800EBC350D4
:10022000F0BC00F03FBB6142012202EB4101001B28
:10023000F6E7F0BC704781F00041AAE780F000408B
:10024000A7E780EA010210B502F00043400022D087
:100250004A001FD0010E01EB1261C0F35600C2F339
:10026000560240F4000042F40002A0FB0220000409
:100270007F39140400D0401C50EA124001D44000E1
:10028000491EC2B20C0604EBD010401C4008802A64
:1002900002D003E0002010BD20F00100002900DAA8
:1002A0000020184310BD2DE9FE4F804681EA03006F
:1002B000C00F0C46009021F0004123F00045B8EB40
:1002C0000200A94105D24046214690461C460B46F5
:1002D000024623F00040104347D0270DC7F30A0021
:1002E000C3F30A510290401A019040286BDAC3F31D
:1002F000130040F4801B0098924620B10023D2EBFB
:10030000030A63EB0B0B01985946C0F140025046BB
:1003100000F097FA06460D4650465946019A00F0FD
:10032000AFFA10EB08006141002487EA115284EA19
:10033000E7731A4340D0009A62B3019A012A4FEA48
:10034000075215DC001B61EB02014FF0004202EA8C
:100350000752CDE90042001C41F5801132462B4680
:1003600000F0E6FA03B0BDE8F08F40462146F9E719
:10037000001B61EB0201001C41F5801300185B417A
:100380002018A2F5001747EB030140EAD570B61913
:100390006D4111E06D084FEA360645EAC0754FEA37
:1003A0000752001B61EB0201001C41F58011490856
:1003B0004FEA30000019514132462B4603B0BDE8E8
:1003C000F04F00F0A6BA0098012240000023D0EBC5
:1003D000020263EBE073009821464FEAE074B8EB49
:1003E000000061EB0401E9E783F000435BE781F083
:1003F000004158E72DE9FE4F81EA030404F0004470
:1004000021F0004100944FF0000B23F0004350EA2C
:1004100001045ED052EA03045BD0C3F30A54C1F373
:100420000A552C44A4F2F3340194A0FB0254C1F306
:10043000130141F48011C3F3130343F4801301FB50
:10044000024400FB034E840A970A44EA815447EAB7
:100450008357A4FB076802958D0A05FB07854FEAC1
:10046000932C04FB0C542705029D4FEA065847EADB
:100470001637B5EB08056EEB070C870E920E47EAB0
:10048000811742EA8312A7FB0201B6EB0B0164EB72
:1004900000042B0D43EA0C335E1844EB1C50DA4683
:1004A0005146E7FB0201C5F313044FEA0B3343EA5D
:1004B00014534FEA0432019C43EA0603A4F10C04EE
:1004C0000294009CCDE900B400F032FA03B0BDE81C
:1004D000F08F00200146F9E72DE9F04D81EA030491
:1004E00004F0004B21F0004514464FF0000A23F0C1
:1004F000004150EA050220D054EA01021DD0C5F3A4
:100500000A570246C5F31303C1F31300C1F30A5699
:1005100040F4801543F48013A7EB0608101BD64661
:1005200008F2FD3873EB050002D308F1010801E081
:1005300092185B41B8F1000F03DA00200146BDE8D4
:10054000F08D00204FF48011064684460EE0171B04
:1005500073EB050705D3121B63EB050306434CEA57
:10056000010C49084FEA300092185B4150EA01073C
:10057000EDD152EA030012D082EA040083EA0501B9
:10058000084305D0101BAB4106D20122002306E030
:1005900000224FF0004302E06FF0010253101AEB0B
:1005A00006004CEB085110EB0A0041EB0B01BDE8D3
:1005B000F04D00F0AEB9C10F80EAE0700844CA0700
:1005C0009623002100F077B90EB5C10F80EAE070E4
:1005D0000844CA07002140F233438DE80E000A4662
:1005E0000B4600F0A5F903B000BD0EB540F2334153
:1005F00002910021CDE900110A460B4600F098F95E
:1006000003B000BD00F0004220F00040C10DC0F377
:10061000160040F400007F2901DA00207047962977
:1006200003DCC1F19601C84001E096398840002AF8
:10063000F4D04042704720F00040C10DC0F31600D6
:1006400040F400007F2901DA00207047962903DC7E
:10065000C1F19601C840704796398840704770B51F
:10066000C1F30A5201F000450024C1F3130140F226
:10067000FF3341F480119A4201DA002070BD40F24C
:1006800033439A42A2F2334203DC524200F0E8F8CC
:1006900000E090402C43F1D0404270BDC1F30A52BB
:1006A00010B5C1F3130140F2FF3341F480119A42B7
:1006B00001DA002010BD40F233439A42A2F23342E5
:1006C00003DC524200F0CCF810BD904010BD00F0A9
:1006D000004230F000400AD0C10D01F56071C0F356
:1006E000160042EA0151C20840071143704700203A
:1006F0000146704730B5041E71F1000404DB4FF071
:100700000044404264EB0101141E73F1000405DB58
:100710001C464FF00043524263EB04038B4208BF78
:10072000824230BD30B5041E71F1000404DB4FF08D
:100730000044404264EB0101141E73F1000405DB28
:100740001C464FF00043524263EB0403994208BF3A
:10075000904230BD01F0004330B421F0004150EA36
:10076000010206D00A0DA2F56072C1F31301002A3E
:1007700002DC30BC00207047440F44EAC104C100D1
:10078000E01830BC00EBC25000F08CB8002801DB50
:10079000C0F10040002901DBC1F1004181427047F6
:1007A000002801DBC0F10040002901DBC1F100415C
:1007B0008842704730B50B460146002020220124B4
:1007C00009E021FA02F59D4205D303FA02F5491B1F
:1007D00004FA02F52844151EA2F10102F1DC30BD35
:1007E0002DE9F05F0546002092469B468846064666
:1007F000814640241BE0284641464746224600F0F9
:100800002FF853465A46C01A914110D31146184644
:10081000224600F016F82D1A67EB01084F462246D3
:100820000120002100F00DF817EB00094E41201EB9
:10083000A4F10104DFDC484631462A464346BDE8C0
:10084000F09F202A04DB203A00FA02F100207047D2
:100850009140C2F1200320FA03F3194390407047FE
:10086000202A04DB203A21FA02F00021704721FA05
:1008700002F3D040C2F1200291400843194670476C
:10088000202A06DBCB17203A41FA02F043EAE07354
:1008900006E041FA02F3D040C2F120029140084341
:1008A000194670470029A8BF7047401C490008BF7F
:1008B00020F00100704710B4B0FA80FC00FA0CF090
:1008C00050EA010404BF10BC704749B1CCF12004C8
:1008D00021FA04F411FA0CF118BF01212143084355
:1008E000A3EB0C01CB1D4FEA00614FEA102042BF81
:1008F000002010BC704700EBC35010440029A4BF77
:1009000010BC7047401C490008BF20F0010010BC1B
:10091000704710B5141E73F1000408DA401C41F151
:10092000000192185B411A4301D120F0010010BD73
:100930002DE9F04D92469B4611B1B1FA81F202E0E9
:10094000B0FA80F220329046FFF77BFF04460F4654
:1009500040EA0A0041EA0B0153465A46084313D0C5
:10096000114653EA010019D0C8F140025046FFF782
:1009700077FF05460E46504659464246FFF761FF4F
:10098000084305D0012004E020463946BDE8F08D3B
:100990000020054346EAE0762C4337430A98630576
:1009A000E40AA0EB08000022FD0A44EA47540A309A
:1009B00002D500200146E9E7010510196941DDE98A
:1009C000084500196941BDE8F04DA2E72DE9F04D59
:1009D00000231A461B1A8A4103DB00200146BDE8AA
:1009E000F08DC1F30A52C1F3130141F480154FF0A9
:1009F000000BD10702D100186D41521E002704469A
:100A000040F2FF11384601EB620A3E46804602463C
:100A100000204FF48011FFF723FFC2197141BB186A
:100A200046EB0100B4EB030C75EB000C04D3E41AA5
:100A300065EB000517460E46241908F101006D41CB
:100A400080463428E3DDF91946EB0600091BA8416E
:100A500003D24FF0FF32134601E0002213461BEB96
:100A6000070046EB0A51BDE8F04DFFF752BFC1F356
:100A70000A52C1F3130140F2FF3341F480119A424C
:100A800002DA00200146704740F233439A42A2F254
:100A9000334202DC5242FFF7E3BEFFF7D2BE000052
:100AA000064C074D06E0E06840F0010394E80700BB
:100AB00098471034AC42F6D3FFF73EFB2869000894
:100AC0004869000800BFFEE730B50346144600221F
:100AD000002004E01D5C1544EAB2451CA8B288421F
:100AE000F8DB104630BD000010B5044624B9802163
:100AF000044800F01AFA03E08021024800F013FADB
:100B000010BD00000020014010B504462CB94FF480
:100B10008071054800F007FA04E04FF48071024844
:100B200000F003FA10BD00000020014010B504469B
:100B30002CB94FF48071054800F0F5F904E04FF44A
:100B40008071024800F0F1F910BD0000000801407A
:100B500010B5044624B90221044800F0E6F903E088
:100B60000221024800F0DFF910BD00000010014032
:100B700010B54FF4005000F0BBF818B14FF400501E
:100B800000F002F810BD000000F0805111B10349DF
:100B9000086001E002494860704700000404024018
:100BA0000000024001684FF6FE7211400160002112
:100BB000016041608160C1604B49884208D14A4967
:100BC0000839496841F00F01474A083A51608AE004
:100BD00045491431884208D143490839496841F0F0
:100BE000F001414A083A51607DE03F49283188428E
:100BF00008D13D490839496841F470613A4A083AD8
:100C0000516070E038493C31884208D13649083992
:100C1000496841F47041344A083A516063E032490E
:100C20005031884208D130490839496841F470216F
:100C30002D4A083A516056E02B496431884208D168
:100C400029490839496841F47001274A083A516036
:100C500049E025497831884208D123490839496853
:100C600041F07061204A083A51603CE01F498842D7
:100C700006D1011F096841F00F01021F116032E027
:100C80001A491431884208D11849091F096841F0EE
:100C9000F001164A121F116025E0144928318842DC
:100CA00008D11249091F096841F470610F4A121FE7
:100CB000116018E00D493C31884208D10B49091FE9
:100CC000096841F47041094A121F11600BE007499D
:100CD0005031884207D10549091F096841F4702144
:100CE000024A121F116070470800024008040240C7
:100CF00001460020002201F0805313B1054B1A6811
:100D000001E0054B1A6802EA01030BB1012000E083
:100D10000020704700040240000002401AB103683E
:100D20000B43036002E003688B430360704710B518
:100D30000022026847F6F0739A430C6A8B682343DB
:100D40000C6923434C6923438C692343CC692343B7
:100D50004C6A23438C6A23431A430260CB68436086
:100D60000B6883604B68C36010BD70472DE9F0418C
:100D7000024600250026002000230024002791F8C9
:100D800003C00CF00F0591F803C00CF0100CBCF17F
:100D9000000F03D091F802C04CEA050591F800C09D
:100DA000BCF1000F31D0146800202BE04FF0010C93
:100DB0000CFA00F3B1F800C00CEA03069E4220D101
:100DC00083004FF00F0C0CFA03F7BC4305FA03FC49
:100DD0004CEA040491F803C0BCF1280F06D14FF08F
:100DE000010C0CFA00FCC2F814C00AE091F803C030
:100DF000BCF1480F05D14FF0010C0CFA00FCC2F811
:100E000010C0401C0828D1D31460B1F800C0BCF158
:100E1000FF0F34DD546800202EE000F1080C4FF085
:100E2000010808FA0CF3B1F800C00CEA03069E4270
:100E300021D183004FF00F0C0CFA03F7BC4305FAE5
:100E400003FC4CEA040491F803C0BCF1280F05D15F
:100E500000F1080C08FA0CF8C2F8148091F803C0ED
:100E6000BCF1480F07D100F1080C4FF0010808FA57
:100E70000CF8C2F81080401C0828CED35460BDE89E
:100E8000F0810000F0B50A4600230024002100256F
:100E900000F00046B6F1004F02D11D4EF16901E0AD
:100EA0001B4E7168C0F3034583B200F44016B6F5DB
:100EB000401F08D121F07061154E766826F07066EB
:100EC000134F7E6012E000F48016B6F5801F06D145
:100ED000032606FA05F4A14341F0706106E0460DD1
:100EE000360103FA06F6B14341F0706122B1460DB6
:100EF000360103FA06F6314300F00046B6F1004F22
:100F000002D1034EF16101E0014E7160F0BD0000BD
:100F1000000001400246002093680B400BB1012005
:100F200000E00020704741617047016170470AB1DD
:100F3000016100E04161704700BFFEE708B5012193
:100F4000402001F0E9FC28208DF803004020ADF896
:100F5000000003208DF8020069460448FFF706FFF1
:100F600040210248FFF7DFFF08BD000000180140E4
:100F700010B5002440210A48FFF7CCFF01280DD10D
:100F8000142004F041F900BF40210548FFF7C2FFDB
:100F90000128F9D0142004F037F90124204610BDAF
:100FA0000018014008B50121082001F0B5FC01211D
:100FB000402001F0B1FC10208DF803002020ADF896
:100FC000000003208DF8020069461548FFF7CEFEA9
:100FD00010208DF803002020ADF8000003208DF8CC
:100FE000020069460F48FFF7C1FE10208DF803008C
:100FF0000820ADF8000003208DF80200694609487A
:10100000FFF7B4FE20210648FFF78FFF2021054897
:10101000FFF78BFF08210348FFF787FF08BD00009B
:10102000000C01400018014000B589B001210420E6
:1010300001F072FC0121082001F06EFC012110205A
:1010400001F06AFC0121084601F056FC0121084626
:1010500001F062FC01214248FFF714FF10208DF8D7
:101060002300ADF8200003208DF8220008A93D4898
:10107000FFF77CFE18208DF823004FF48060ADF858
:10108000200003208DF8220008A93748FFF76EFEE4
:1010900010208DF823002020ADF8200003208DF8CB
:1010A000220008A93148FFF761FE10212D48FFF703
:1010B0003AFF4FF480612C48FFF735FF20212B4881
:1010C000FFF731FF05A802F00BFC0020ADF81A0075
:1010D000ADF816006320ADF818004720ADF81400F5
:1010E00005A94FF0804002F0A9FB01A802F091FB96
:1010F0006020ADF804000020ADF80C000120ADF830
:1011000006003120ADF80A0001A9800702F0DCFAE0
:101110001C208DF8000001208DF803008DF80100DF
:101120008DF80200684600F0F1FF0121880702F007
:10113000E0FB0121880702F0CFF901221146900758
:1011400002F002FA0821C80602F00EFB012188070E
:1011500002F0B6F90121880702F0C1F909B000BD1B
:101160000003180000080140000C0140001001407D
:1011700000B589B00121080201F0CEFB0121102049
:1011800001F0CAFB0121022001F0B6FB0121084653
:1011900001F0C2FB01214148FFF774FE10208DF8D9
:1011A00023008020ADF8200003208DF8220008A93C
:1011B0003B48FFF7DBFD18208DF823004020ADF8F9
:1011C000200003208DF8220008A93648FFF7CEFD45
:1011D00010208DF823002020ADF8200003208DF88A
:1011E000220008A92F48FFF7C1FD80212C48FFF7F6
:1011F0009AFE40212B48FFF796FE20212948FFF751
:1012000092FE05A802F06CFB0020ADF81A00ADF8C4
:1012100016006320ADF818004720ADF8140005A9AA
:10122000214802F00BFB01A802F0F3FA6020ADF8B0
:1012300004000020ADF80C000120ADF806003120BC
:10124000ADF80A0001A9184802F088F91D208DF8B0
:10125000000001208DF803008DF801008DF80200D8
:10126000684600F053FF01210F4802F042FB0121C4
:101270000D4802F031F9012211460B4802F064F9E1
:101280000821094802F0B6F90121074802F018F9CF
:101290000121054802F023F909B000BD000C1A0035
:1012A00000200140001001400004004000B589B05A
:1012B0000121080201F030FB0121102001F02CFB7C
:1012C0000121022001F018FB0121084601F024FB56
:1012D00001214248FFF7D6FD10208DF823000001C0
:1012E000ADF8200003208DF8220008A93C48FFF744
:1012F0003DFD18208DF823008020ADF8200003204C
:101300008DF8220008A93748FFF730FD10208DF82E
:1013100023002020ADF8200003208DF8220008A92A
:101320003048FFF723FD4FF480712D48FFF7FBFD98
:1013300080212C48FFF7F7FD20212A48FFF7F3FD15
:1013400005A802F0CDFA0020ADF81A00ADF816009D
:101350006320ADF818004720ADF8140005A9224815
:1013600002F06CFA01A802F054FA6020ADF8040013
:101370000020ADF80C000120ADF806003120ADF8DA
:101380000A0001A9184802F03FF91D208DF800005D
:1013900001208DF803008DF801008DF802006846E9
:1013A00000F0B4FE0121104802F0A3FA01210E481A
:1013B00002F092F8012211460B4802F0C5F808210C
:1013C000094802F073F90121074802F079F8012178
:1013D000054802F084F809B000BD0000000C1A00B6
:1013E00000200140001001400004004000B589B019
:1013F0000121042001F090FA0121102001F08CFA63
:101400000121202001F088FA0121022001F074FA64
:101410000121084601F080FA01214348FFF732FD1F
:1014200010208DF823000001ADF8200003208DF876
:10143000220008A93D48FFF799FC18208DF82300E9
:101440004FF48070ADF8200003208DF8220008A929
:101450003748FFF78BFC10208DF823008020ADF873
:10146000200003208DF8220008A93248FFF77EFCF7
:101470004FF480712D48FFF756FD4FF480712C48D2
:10148000FFF751FD80212B48FFF74DFD05A802F025
:1014900027FA0020ADF81A00ADF816006320ADF869
:1014A00018004720ADF8140005A9234802F0C6F93A
:1014B00001A802F0AEF96020ADF804000020ADF8FC
:1014C0000C000120ADF806003120ADF80A0001A99A
:1014D000194802F0F9F81D208DF8000001208DF860
:1014E00003008DF801008DF80200684600F00EFE42
:1014F0000121114802F0FDF901210F4801F0ECFF34
:10150000012211460C4802F01FF808210A4802F097
:101510002BF90121084801F0D3FF0121064801F011
:10152000DEFF09B000BD0000000C1A0000080140F9
:1015300000100140001401400004004000B589B0D3
:101540000121102001F0E8F90121202001F0E4F947
:101550000121022001F0D0F90121084601F0DCF957
:1015600001214248FFF78EFC10208DF82300022055
:10157000ADF8200003208DF8220008A93C48FFF7B1
:10158000F5FB18208DF823004FF40070ADF8200013
:1015900003208DF8220008A93548FFF7E7FB10204B
:1015A0008DF823008020ADF8200003208DF8220064
:1015B00008A93048FFF7DAFB02212D48FFF7B3FCFA
:1015C0004FF400712A48FFF7AEFC80212948FFF74D
:1015D000AAFC05A802F084F90020ADF81A00ADF8C5
:1015E00016006320ADF818004720ADF8140005A9D7
:1015F000214802F023F901A802F00BF96020ADF8B0
:1016000004000020ADF80C000120ADF806003120E8
:10161000ADF80A0001A9184802F0B0F81D208DF8B5
:10162000000001208DF803008DF801008DF8020004
:10163000684600F06BFD01210F4802F05AF90121C4
:101640000D4801F049FF012211460B4801F07CFFD3
:101650000821094802F0D0F80121074801F030FFC5
:101660000121054801F03BFF09B000BD000C1A0044
:101670000010014000140140000400402DE9F04733
:10168000CA48B0F90000B42805D0C848B0F9000035
:10169000B43000287DD10021C5480068FFF780F8EC
:1016A00027D20020C3490860C048B0F90000FEF707
:1016B0008BFF21F000470646BD480068FFF707F89A
:1016C00021F00041804632463B46FEF78DFE21F078
:1016D00000410446FFF73EF8824600F085F906E037
:1016E000B4480068B4490988884200D100E0F7E7AF
:1016F0002FE00021AE480068FFF748F829D200200B
:10170000AC490860A948B0F90000FEF75DFF21F080
:1017100000470646A6480068FEF7D9FF21F00041C1
:10172000804632463B46FEF75FFE21F0004181F0E5
:1017300000410446FFF70EF8824600F055F906E036
:101740009C4800689C490988884200D100E0F7E77E
:1017500000BF642003F058FD002195480068FFF7A2
:101760001FF829D20020934908609048B0F9000082
:10177000FEF72AFF21F0004706468D480068FEF775
:10178000A6FF21F00041804632463B46FEF72CFE84
:1017900000E0A2E021F000410446FEF7DBFF8246B4
:1017A00000F022F906E083480068834909888842EE
:1017B00000D100E0F7E72FE000217D480068FEF748
:1017C000E5FF29D200207B4908607848B0F9000085
:1017D000FEF7FAFE21F00049804675480068FEF7E2
:1017E00076FF21F00041064642464B46FEF7FCFDDF
:1017F00021F0004181F000410446FEF7ABFF824634
:1018000000F0F2F806E06B4800686B4909888842EE
:1018100000D100E0F7E700BF642003F0F5FC0021F1
:1018200063480068FEF7BCFF27D2002061490860CA
:101830005E48B0F90000FEF7C7FE21F0004980467F
:101840005B480068FEF743FF21F000410646424630
:101850004B46FEF7C9FD21F000410446FEF77AFF32
:10186000824600F0C1F806E05248006852490988F3
:10187000884200D100E0F7E795E000214C4800687D
:10188000FEF784FFF8D200204A4908604748B0F9C3
:101890000000FEF799FE21F0004504464448006828
:1018A000FEF715FF21F00041064622462B46FEF7C3
:1018B0009BFD21F0004181F000418046FEF74AFF88
:1018C000824600F091F806E03A4800683A490988F3
:1018D000884200D100E0F7E765E035480168334809
:1018E000B0F9000003F0B4FC012816D10020314902
:1018F00008602E48B0F900102D48006803F008F980
:10190000044600F071F806E02A4800682A49098870
:10191000884200D100E0F7E700BF642003F074FCC8
:10192000234801682148B0F9000003F091FC012828
:1019300016D100201F4908601C48B0F900101C484F
:10194000006803F0E5F8044600F04EF806E0194898
:10195000006819490988884200D100E0F7E700BF14
:10196000642003F051FC124801681048B0F90000EF
:1019700003F06EFC012816D100200E4908600B48C8
:10198000B0F900100A48006803F0C2F8044600F0FD
:101990002BF806E00748006807490988884200D10B
:1019A00000E0F7E700BFBDE8F0870000000000207E
:1019B00048000020640000207400002010B5044698
:1019C000204600F0D9F8322104FB01F003F098F82A
:1019D000044908801E230F2211460248008800F0A7
:1019E000EBF810BD7400002070B505460C49284680
:1019F000FEF727FC0646FEF705FE04B2204600F07F
:101A0000BBF804EB840108B203F07AF805490880BA
:101A100014230A2211460348008800F0CDF870BD57
:101A2000000020417400002070B505460C46002DD2
:101A30000CDA0020FFF758F80020FFF765F80020C7
:101A4000FFF774F80020FFF783F80DE0002D0BDDA1
:101A50000120FFF749F80120FFF756F80120FFF7B2
:101A600065F80120FFF774F8002C0CDD0020FFF76B
:101A70003BF80120FFF748F80020FFF757F8012056
:101A8000FFF766F80DE0002C0BDA0120FFF72CF8C9
:101A90000020FFF739F80120FFF748F80020FFF792
:101AA00057F870BD70B504460D4600BF2946204664
:101AB000FFF7BAFF2946204603F026FD064606EB4F
:101AC00086104000044908602D231922114602485F
:101AD000006800F071F870BD700000202DE9F0473B
:101AE000044689464FF0000A002010490860494624
:101AF0002046FFF799FF4946204603F005FD824640
:101B00005046FEF761FD0746094A0A4BFEF772FC94
:101B10000546FEF7A4FD054908600A230522114683
:101B20000248006800F048F8BDE8F0877000002027
:101B3000CDCCCCCCCCCCF43F70B504460D4600BF28
:101B400000200C49086029462046FFF76DFF294612
:101B5000204603F0D9FC064606EB860000EBC600E3
:101B60000449086014230C2211460248006800F062
:101B700023F870BD7000002010B50446002C0CDD69
:101B80000020FEF7B1FF0120FEF7BEFF0120FEF7A7
:101B9000CDFF0020FEF7DCFF0DE0002C0BDA01206A
:101BA000FEF7A2FF0020FEF7AFFF0020FEF7BEFF0A
:101BB0000120FEF7CDFF10BD2DE9F04F89B004469E
:101BC0000D4616469946002C06DD6148007820F047
:101BD000080008305E490870012C24D1A01E5C4921
:101BE00048610846007820F00700801C08704FF418
:101BF0007A7048606421574801F015FE322155483B
:101C000001F013FE3221534801F011FE32215148F8
:101C100001F00FFE32214F4801F00DFE01214D4829
:101C200001F05DFC90E0002CFCD06420454346436D
:101C300009FB00F94848B0FBF9F0454908614748FD
:101C4000B0FBF5F00190FEF7D0FC074603F071FC05
:101C50000022434BCDE90201FEF7CCFB0022414BB1
:101C6000CDE90401FEF738FCCDE90601FEF716FDCB
:101C700037494860C5EBC50000EB45106421B0FB57
:101C8000F1F109FB09F0B0FBF1F01FFA80FABAF1AB
:101C9000000F01D14FF0010A04FB06F0A919B0FBB7
:101CA000F1F01FFA80FBBBF1000F01D14FF0010BE7
:101CB000D34504DCABEB04002549C86006E00AFB11
:101CC00005F0B0FBF6F040422149C8602048C068EA
:101CD00018B94FF0FF301E49C8601D48C068204445
:101CE0001B49886008464068096988420AD8184834
:101CF0000069174948600846007820F00700C01CBA
:101D0000087006E01248007820F00700401C1049D7
:101D1000087000200E49486164210E4801F083FDDF
:101D200032210C4801F081FD32210A4801F07FFD8B
:101D30003221084801F07DFD3221064801F07BFD8B
:101D40000121044801F0CBFB09B0BDE8F08F000091
:101D50007401002000040040FDFE0200F23557022D
:101D60000068BA40000059402DE9F04F89B00446A0
:101D70000D4616469946002C06DD5948007820F09D
:101D80000800083056490870012C1CD1A01E544987
:101D900048610846007820F00700801C08704FF466
:101DA0007A7048606421C00601F03DFD3221480789
:101DB00001F03FFD3221480701F03DFD0121880778
:101DC00001F08DFB88E0002CFCD0642045434643A5
:101DD00009FB00F94348B0FBF9F04149086142486A
:101DE000B0FBF5F00190FEF700FC074603F0A1FB05
:101DF00000223E4BCDE90201FEF7FCFA00223C4BEB
:101E0000CDE90401FEF768FBCDE90601FEF746FCCB
:101E100033494860C5EBC50000EB45106421B0FBB9
:101E2000F1F109FB09F0B0FBF1F01FFA80FABAF109
:101E3000000F01D14FF0010A04FB06F0A919B0FB15
:101E4000F1F01FFA80FBBBF1000F01D14FF0010B45
:101E5000D34504DCABEB04002149C86006E00AFB73
:101E600005F0B0FBF6F040421D49C8601C48C06850
:101E700018B94FF0FF301A49C8601948C0682044AB
:101E80001749886008464068096988420AD814489A
:101E90000069134948600846007820F00700C01C1C
:101EA000087006E00E48007820F00700401C0C493E
:101EB000087000200A4948616421080701F0B3FC5A
:101EC0003221480701F0B5FC3221480701F0B3FC8C
:101ED0000121880701F003FB09B0BDE8F08F000085
:101EE0008C010020FDFE0200F23557020068BA4066
:101EF000000059402DE9F04F89B004460D461646C2
:101F00009946002C06DD5948007820F0080008307A
:101F100056490870012C1CD1A01E5449486108463E
:101F2000007820F00700801C08704FF47A70486039
:101F300064214F4801F077FC32214D4801F079FCD3
:101F400032214B4801F077FC0121494801F0C7FAE2
:101F500088E0002CFCD064204543464309FB00F98F
:101F60004448B0FBF9F0414908614348B0FBF5F043
:101F70000190FEF73AFB074603F0DBFA00223F4BE5
:101F8000CDE90201FEF736FA00223D4BCDE904010E
:101F9000FEF7A2FACDE90601FEF780FB334948605F
:101FA000C5EBC50000EB45106421B0FBF1F109FB66
:101FB00009F0B0FBF1F01FFA80FABAF1000F01D17D
:101FC0004FF0010A04FB06F0A919B0FBF1F01FFA6B
:101FD00080FBBBF1000F01D14FF0010BD34504DCB6
:101FE000ABEB04002149C86006E00AFB05F0B0FB3A
:101FF000F6F040421D49C8601C48C06818B94FF04F
:10200000FF301A49C8601948C068204417498860E1
:1020100008464068096988420AD81448006913498B
:1020200048600846007820F00700C01C087006E0F1
:102030000E48007820F00700401C0C490870002072
:102040000A49486164210A4801F0EDFB3221084841
:1020500001F0EFFB3221064801F0EDFB01210448BD
:1020600001F03DFA09B0BDE8F08F0000A4010020A6
:1020700000080040FDFE0200F23557020068BA4039
:1020800000005940012805D105490968491C044A46
:10209000116004E002490968491E014A1160704755
:1020A00064000020012805D105490968491C044A3B
:1020B000116004E002490968491E014A1160704735
:1020C00068000020012805D105490968491C044A17
:1020D000116004E002490968491E014A1160704715
:1020E0006C00002000BFFEE710B5044624B91021A3
:1020F0000448FEF718FF03E010210248FEF715FF21
:1021000010BD0000000801407047000070B50021BC
:1021100000230F22C47804B3154C246804F4E0644F
:10212000C4F5E064210AC1F10403CA40447804FA0A
:1021300003F184781440214309010E4C0678A1551F
:10214000047804F01F050124AC4005786D11AD0042
:1021500005F1E025C5F8004109E0047804F01F0509
:102160000124AC40044D0678761145F8264070BD38
:102170000CED00E000E400E080E100E002490143F2
:10218000024A1160704700000000FA050CED00E003
:1021900000200CE0002106E00022064B03EBC013F8
:1021A0005A544A1CD1B28029F6DB421CD0B208280E
:1021B000F0DB7047FC0300202DE9F04304460D4698
:1021C00016461F46284638E0224631E0002A2DDB1D
:1021D0007F2A2BDC002829DB3F2827DC4FEAE07C24
:1021E00000EB5C7C4FEAEC0CDFF8588008EBCC1C71
:1021F0001CF802C003464FEAE07800EB58784FEA3B
:10220000E808A0EBC8094FF0010808FA09F82CEA21
:10221000080C01464FEAE07800EB58784FEAE808EE
:10222000DFF8209009EBC81808F802C0511C0AB268
:10223000A1199142CADC411C08B2E9198142C3DCF0
:10224000BDE8F083FC03002038B5002406E000253B
:1022500000E06D1CB5F57A7FFBD3641CB4F57A7F82
:10226000F5D30121202000F057FB14208DF8030046
:1022700003208DF802001020ADF8000069460848E0
:10228000FEF774FD0220ADF8000069460448FEF731
:102290006DFD012000F03CFA012000F047FA38BD46
:1022A0000014014070B50546002411E08021214151
:1022B000294009B1012100E00021084600F036FA6A
:1022C000012000F025FA002000F022FA601CC4B2C0
:1022D000082CEBDB012000F01BFA002000F018FABC
:1022E00070BD10B5012000F021FA012000F010FAB5
:1022F000002000F01BFA002000F00AFA10BD10B513
:10230000002000F013FA012000F002FA012000F092
:102310000DFA10BD10B5FFF797FFAE2000F014FACC
:10232000D52000F011FA802000F00EFAA82000F06D
:102330000BFA3F2000F008FAD32000F005FA002045
:1023400000F002FA402000F0FFF9A12000F0FCF9B3
:10235000C82000F0F9F9DA2000F0F6F9122000F0B8
:10236000F3F9812000F0F0F9CF2000F0EDF9D92049
:1023700000F0EAF9F12000F0E7F9DB2000F0E4F9E1
:10238000302000F0E1F9A42000F0DEF9A62000F0F2
:10239000DBF98D2000F0D8F9142000F0D5F9AF203A
:1023A00000F0D2F9FFF7F4FE00F09EF910BD10B571
:1023B0000246012000E050430B1EA1F10101FAD1B9
:1023C00010BD0FB470B5C2B005460E4614464AA8FB
:1023D000019002A8019A499901F00CFF0020019098
:1023E000234602AA3146284600F0F6F842B070BCF7
:1023F0005DF814FB70B505460C4645F0B00000F0E2
:10240000A3F9102141EA141000F09EF904F00F0026
:1024100000F09AF970BD0000F8B506460F46144664
:102420001D46082D0CD1A4F120000E4901EB00102F
:102430001023082239460090304600F017F80FE0CC
:10244000062D0DD1A4F1200000EB4000064901EB60
:1024500040000823062239460090304600F006F876
:10246000F8BD0000E85F0008D86500082DE9FF4FBF
:1024700080460E469146DDF834B0002500244A46D9
:1024800031464046039BFFF797FE00BF5EE0002504
:1024900058E008EB0500002852DB08EB05007F2818
:1024A0004EDC3046F11706EB5171C9100FB2F1172F
:1024B00006EB5171C910A6EBC10A002E05DA781E91
:1024C00007B20AF108000FFA80FA3819002817DB62
:1024D0003819072814DC3819224901EBC01008EB21
:1024E0000501405C04FB09511BF8011001FA0AF1D7
:1024F000084339191B4A02EBC11108EB0502885445
:102500003819401C00281BDB3819401C072817DC31
:102510003819401C134901EBC01008EB0501405C61
:1025200004FB09511BF80110CAF1080211410843CC
:102530003919491C0B4A02EBC11108EB05028854FA
:10254000681CC5B24D45A4DB601CC4B20399481E8B
:10255000C11700EB5171012202EBE101A14296DCAF
:10256000BDE8FF8FFC0300202DE9F04F80468A462E
:1025700015461E46DDF82490002D07DB4B462B2226
:1025800051464046FFF748FF2F4606E04B462D22B6
:1025900051464046FFF740FF6F42002418E0301BD1
:1025A000411E0A20FFF703FFB7FBF0F00A21B0FB42
:1025B000F1F201FB120000F1300B611C01FB0981FB
:1025C00008B24B465A465146FFF726FF601CC4B27C
:1025D000B442E4DBBDE8F08F2DE9FE4F07468A46A2
:1025E000144698460025AB46002672E0605D00F078
:1025F000800058B94FF0010B2846691C8DB2205C51
:102600008DF8040000208DF8050013E04FF0020B58
:102610002846691C8DB2205C8DF80400605D00B90D
:102620005AE02846691C8DB2205C8DF80500002018
:102630008DF80600BBF1010F0BD19DF80420B919EC
:1026400008B243465146FFF7E7FE06EB080086B2A4
:102650003FE04FF000090EE0C9EBC90101EB810139
:102660001F4A881801A9FDF786FD00B90EE009F19F
:1026700001001FFA80F9C9EBC90101EB8101184A79
:10268000881818A1FDF777FD0028E5D100BFB8F143
:10269000080F12D1C9EBC90000EB800010490844B3
:1026A000C01CB919009008B210231A465146FFF712
:1026B000DDFE06F1100086B20BE0B8F1060F08D17E
:1026C000B91908B206233F225146FFF7A5FEB01DF7
:1026D00086B2605D002889D100BFBDE8FE8F000092
:1026E000126800080000000010B500240BE0002173
:1026F0002046FFF77FFE054901EBC410802100F062
:1027000033F8601CC4B2082CF1DB10BDFC030020C0
:1027100010B50446224610210348FEF708FC0220AB
:1027200002F07EFD10BD00000014014010B504460B
:10273000224602210348FEF7FAFB022002F070FD58
:1027400010BD00000014014010B50446FFF7C9FD9C
:102750007820FFF7A7FD0020FFF7A4FD2046FFF734
:10276000A1FDFFF7CCFD10BD70B505460E46FFF785
:10277000B8FD7820FFF796FD4020FFF793FD002479
:1027800004E0285DFFF78EFD601CC4B2B442F8DBA4
:10279000FFF7B5FD70BD00002DE9F04F89B004468C
:1027A0008946B9F10B0F7DD16278A9F1010081B2A0
:1027B0002046FEF789F90890A9F10100215C0898EC
:1027C000814202D009B0BDE8F08F2078552826D18B
:1027D0006078532823D194F806A094F807B04AEA09
:1027E0000B2000B207900798FDF7E5FE0390FDF778
:1027F0006EFF07460022304BFDF76EFE00222F4B86
:10280000CDE90401FDF7F6FD0546FDF7A3FF0690AF
:102810002B490698086001202A49087049E0207871
:10282000552846D16078522843D1207907906079A5
:102830000690DDE9061040EA012000B205900598F7
:10284000FDF7B9FE0190FDF742FF824600221A4BC8
:10285000FDF742FE074600221B4BFDF7CBFD054668
:10286000FDF778FF19490860A0790490E07903909A
:10287000DDE9031040EA012000B202900298FDF762
:102880009AFE0190FDF723FF074600220A4BFDF751
:1028900023FE824600220C4BFDF7ACFD0546FDF7FA
:1028A00059FF00E006E00A49086001200549087068
:1028B00000BF00BF00BF85E70000E0400080664029
:1028C000480000204C00002000409F4050000020A5
:1028D000540000207047000029B1064A52690243A3
:1028E000044B5A6104E0034A52698243014B5A6126
:1028F000704700000010024029B1064AD269024325
:10290000044BDA6104E0034AD2698243014BDA6185
:10291000704700000010024029B1064A9269024344
:10292000044B9A6104E0034A92698243014B9A6125
:10293000704700000010024030B500210022002442
:1029400000232D4D6D6805F00C0121B1042905D03F
:10295000082923D105E0294D056022E0274D0560B7
:102960001FE0254D6D6805F47012234D6D6805F468
:102970008034022505EB92421CB9214D5543056078
:102980000BE01D4D6D6805F400351DB11C4D554320
:10299000056002E0194D5543056002E0174D0560E2
:1029A00000BF00BF144D6D6805F0F0010909154D19
:1029B0006B5C0568DD4045600F4D6D6805F4E061B6
:1029C000090A104D6B5C4568DD4085600A4D6D68F5
:1029D00005F46051C90A0B4D6B5C4568DD40C5606C
:1029E000054D6D6805F44041890B074D6B5CC5686A
:1029F000B5FBF3F5056130BD0010024000127A000E
:102A000000093D00060000201600002010B5FF2040
:102A100001F056FBAA2001F053FB762001F050FB99
:102A2000002001F04DFB002001F04AFBC82002F01D
:102A3000EBFB10BD2DE9F05F82465046FDF7D5FD5A
:102A400080460B4A0B4BFDF7D5FC064600220A4B8D
:102A5000FDF729FC0446FDF77DFE83465846FDF749
:102A6000EAFD84B22146054800F0E3FEBDE8F09F90
:102A7000AE47E17A14AEE73F00004940000C004049
:102A80002DE9F05F82465046FDF7AFFD80460B4AC8
:102A90000B4BFDF7AFFC064600220A4BFDF703FC8B
:102AA0000446FDF757FE83465846FDF7C4FD84B241
:102AB0002146054800F0BFFEBDE8F09FAE47E17A31
:102AC00014AEE73F00004940000C00407047000092
:102AD00005480078012804D100200349087001202E
:102AE00070470020FCE70000400000200548007807
:102AF000012804D1002003490870012070470020FC
:102B0000FCE700004200002000B589B0012104204C
:102B1000FFF702FF01210820FFF7EEFE18208DF8D5
:102B200023000420ADF8200003208DF8220008A91E
:102B30001B48FEF71BF90020ADF80A00ADF80600AF
:102B400040F2CF70ADF8080040F2CF20ADF804009D
:102B500000208DF80C0001A9124800F06FFE04A8B7
:102B600000F057FE6020ADF810000020ADF818000E
:102B70000120ADF812000020ADF8160004A90948A4
:102B800000F0A2FD0121074800F0EEFD01210548FB
:102B900000F096FC0121034800F0A1FC09B000BD43
:102BA00000080140000C004000B589B0012104205C
:102BB000FFF7B2FE01210820FFF79EFE18208DF8D6
:102BC00023000820ADF8200003208DF8220008A97A
:102BD0001B48FEF7CBF80020ADF80A00ADF8060060
:102BE00040F2CF70ADF8080040F2CF20ADF80400FD
:102BF00000208DF80C0001A9124800F01FFE04A867
:102C000000F007FE6020ADF810000020ADF81800BD
:102C10000120ADF812000020ADF8160004A9094803
:102C200000F0ACFD0121074800F0E6FD0121054858
:102C300000F046FC0121034800F051FC09B000BD42
:102C400000080140000C004010B500F001F810BD74
:102C50000CB50020019000903348006840F48030AB
:102C60003149086000BF3048006800F4003000902F
:102C70000198401C0190009818B90198B0F5A06F18
:102C8000F1D12948006800F4003010B10120009013
:102C900001E0002000900098012843D123480068FB
:102CA00040F01000214908600846006820F0030049
:102CB00008600846006840F0020008601A48406852
:102CC000194948600846406848600846406840F432
:102CD000806048600846406820F47C1048600846E0
:102CE000406840F4E81048600846006840F0807092
:102CF000086000BF0C48006800F000700028F9D0A0
:102D00000948406820F003000749486008464068C9
:102D100040F00200486000BF0348406800F00C002B
:102D20000828F9D10CBD000000100240002002402C
:102D30007047000010B51348006840F001001149C9
:102D4000086008464068104908400E494860084637
:102D500000680E4908400B4908600846006820F4E6
:102D6000802008600846406820F4FE0048604FF468
:102D70001F008860FFF768FF4FF00060044908609B
:102D800010BD0000001002400000FFF8FFFFF6FE3B
:102D900008ED00E010B50121880700F0C4FB002811
:102DA0007CD00121880700F097FB7D484068C0F384
:102DB0004F004FF08041888779484068C0F34F004A
:102DC00078490880764880880906888574480078A4
:102DD00000F0070030B1012817D0022872D0032874
:102DE00012D170E0002070490860704908604FF00F
:102DF0008040008C20F480504FF0804108840021F6
:102E00004FF0804000F06BFBC6E04FF08040008C3C
:102E100040F480504FF08041088461490978C1F343
:102E2000C000FFF73FF960480068401C5E49086039
:102E30005B484069401C5A494861084640685B4904
:102E40000968022202FB0011554840698000401CBD
:102E500091FBF0F0524949680C1A514840685349B7
:102E6000096802FB00114E4840698000401C91FB3C
:102E7000F0F200FB12104D490860494880684A4949
:102E8000096888420BD84648C068454948610846E9
:102E9000007820F00700801C087012E07FE04048B6
:102EA0000069A0420DD3424804603D4804690020F7
:102EB0003E4908603A48007820F00700C01C3849B5
:102EC000087069E025E04FF08040008C40F48050AD
:102ED0004FF08041088432490978C1F3C000FFF700
:102EE000E1F831480068401C2F4908602C4804690B
:102EF0008068096888420BD82948C0682849486119
:102F00002B4804680846007820F00700801C0870F1
:102F100042E04FF08040008C40F480504FF0804100
:102F200008841F490978C1F3C000FFF7BBF81E48A9
:102F30000068401C1C49086019484069401C184939
:102F400048610846406819490968022202FB0011DD
:102F5000134840698000401C91FBF0F0104949681B
:102F60000C1A0F4840681149096802FB00110C480F
:102F700040698000401C91FBF0F200FB12100B49ED
:102F8000086007484069002805DB0548007820F004
:102F900007000349087000BF00BF0148446010BD2E
:102FA0008C010020400000402C0000203000002058
:102FB0002800002010B50121884800F0B4FA00284C
:102FC0007ED00121854800F087FA85484068C0F32B
:102FD0004F0082493431088081484068C0F34F0077
:102FE000091D08807E484068C0F34F00091D088015
:102FF0007B484068C0F34F00091D088078488088EE
:1030000076492C3108807648007800F0070030B10E
:10301000012816D0022872D0032811D170E00020B8
:1030200070490860704908606C482030008820F4BE
:1030300080506A49203108800021684800F04FFA2A
:10304000C7E066482030008840F480506349203152
:10305000088063490978C1F3C000FFF713F861489D
:103060000068401C5F4908605D484069401C5C493D
:103070004861084640685C490968022202FB001169
:10308000574840698000401C91FBF0F05449496862
:103090000C1A534840685449096802FB0011504813
:1030A00040698000401C91FBF0F200FB12104E4979
:1030B00008604B4880684B49096888420CD800E09A
:1030C0008AE04748C068464948610846007820F0D1
:1030D0000700801C087011E041480069A0420DD330
:1030E000424804603E48046900203F4908603C486B
:1030F000007820F00700C01C3949087069E025E01D
:1031000036482030008840F480503449203108800F
:1031100033490978C1F3C000FEF7B4FF31480068B5
:10312000401C304908602E4804698068096888425C
:103130000BD82B48C0682A4948612C4804680846C7
:10314000007820F00700801C087042E023482030FF
:10315000008840F4805021492031088020490978B6
:10316000C1F3C000FEF78EFF1E480068401C1D49D9
:1031700008601B484069401C19494861084640687E
:1031800019490968022202FB0011154840698000B4
:10319000401C91FBF0F0124949680C1A1048406835
:1031A0001149096802FB00110D4840698000401C6C
:1031B00091FBF0F200FB12100B49086008484069CF
:1031C000002805DB0648007820F007000449087055
:1031D00000BF00BF0248446010BD00000004004072
:1031E0007401002020000020240000201C0000208A
:1031F00010B50121814800F096F900287CD001210A
:103200007E4800F069F97E484068C0F34F007B4972
:103210003C3108807A484068C0F34F00091D08809F
:103220007748808875492C3108807548007800F00F
:10323000070030B1012816D0022871D0032811D11F
:103240006FE000206F4908606F4908606B482030CC
:10325000008820F4805069492031088000216748A7
:1032600000F03DF9C6E065482030008840F4805009
:1032700062492031088062490978C1F3C000FEF735
:1032800021FF60480068401C5E4908605C48406956
:10329000401C5B494861084640685B490968022256
:1032A00002FB0011564840698000401C91FBF0F081
:1032B000534949680C1A524840685349096802FB4F
:1032C00000114F4840698000401C91FBF0F200FB68
:1032D00012104D4908604A4880684A490968884286
:1032E0000BD84748C068464948610846007820F036
:1032F0000700801C087012E07FE041480069A0428E
:103300000DD3424804603E48046900203E490860ED
:103310003B48007820F00700C01C3949087069E07C
:1033200025E036482030008840F480503349203171
:10333000088033490978C1F3C000FEF7C3FE314865
:103340000068401C2F4908602D480469806809689E
:1033500088420BD82A48C068294948612B4804682C
:103360000846007820F00700801C087042E02348DF
:103370002030008840F480502049203108802049C6
:103380000978C1F3C000FEF79DFE1E480068401C8E
:103390001C4908601A484069401C194948610846A0
:1033A000406819490968022202FB0011144840696B
:1033B0008000401C91FBF0F0114949680C1A10483C
:1033C00040681149096802FB00110D4840698000FE
:1033D000401C91FBF0F200FB12100B4908600848FA
:1033E0004069002805DB0648007820F00700044902
:1033F000087000BF00BF0248446010BD00080040D4
:10340000A4010020380000203C00002034000020EF
:103410001FB501211020FFF76FFA0020ADF80A0058
:10342000ADF8060041F61F40ADF8080042F20F70FB
:10343000ADF8040001A90F4800F000FA36208DF81D
:10344000000001208DF8030002208DF801008DF8A6
:1034500002006846FEF75AFE01221146054800F0B8
:1034600073F80121034800F037F80121014800F00A
:1034700036F81FBD0010004010B501210C4800F0C7
:1034800052F878B10B48007808B9012000E000201C
:103490000849087008480078FFF7CCFA074908780F
:1034A000FFF7EEFA0121024800F016F810BD000007
:1034B000001000407C00002061000020620000201D
:1034C00021B1028842F08002028004E002884FF6B7
:1034D0007F731A4002807047CA430282704721B14D
:1034E000028842F00102028004E002884FF6FE7377
:1034F0001A400280704731B1B0F8442042F40042D3
:10350000A0F8442005E0B0F84420C2F30E02A0F871
:10351000442070471AB183890B43838102E0838979
:103520008B438381704730B502460020002300247E
:10353000158A05EA0103958905EA010413B10CB166
:10354000012000E0002030BD1AB183890B43838144
:1035500002E083898B4383817047000070B50024AB
:1035600000220023058C4FF6FE7635400584028C40
:103570008388048B4FF68F752C40B51E2C400D8828
:103580002C43751E2A400D892A434D882A43144D29
:10359000A8420BD0134DA84208D0134DA84205D025
:1035A000124DA84202D0124DA84213D14FF6F77522
:1035B0002A404D892A434FF6FB752A408D882A43BD
:1035C0004FF6FF652B404FF6FF552B408D892B435F
:1035D000CD892B4383800483CD888586028470BD8A
:1035E000002C0140003401400040014000440140F3
:1035F000004801400A460021018B4FF6F77319403D
:10360000114301837047000070B50024002200239D
:10361000058C4FF6EF7635400584028C8388048B49
:1036200048F6FF752C404FF6FF452C400D884FF6AD
:10363000FF7606EA05252C434FF6DF752A400D89F3
:1036400006EA05152A434D8806EA05152A43154D55
:10365000A84202D0144DA8421DD14FF67F752A40D2
:103660004D894FF6FF7606EA05152A434FF6BF75DA
:103670002A408D8806EA05152A434FF6FF352B4070
:103680004FF2FF752B408D8906EA85052B43CD89C6
:1036900006EA85052B4383800483CD880587028451
:1036A00070BD0000002C0140003401400A4600219A
:1036B000018B4FF2FF7319404FF6FF7303EA0223A9
:1036C000194301837047000070B5002400220023D5
:1036D000058C4FF6FF6635400584028C8388848B09
:1036E0004FF68F752C404FF6FC752C400D882C43FF
:1036F0004FF6FF552A400D894FF6FF7606EA05255D
:103700002A434D8806EA05252A43154DA84202D0D2
:10371000144DA8421DD14FF2FF752A404D894FF636
:10372000FF7606EA05252A434FF6FF352A408D88A5
:1037300006EA05252A434EF6FF752B404DF6FF7528
:103740002B408D8906EA05152B43CD8906EA051520
:103750002B4383808483CD888587028470BD0000DD
:10376000002C0140003401400A460021818B4FF6B5
:10377000F7731940114381837047000070B5002230
:1037800000230024058C4EF6FF7635400584038C1B
:103790008488828B48F6FF752A404FF6FF452A4001
:1037A0000D884FF6FF7606EA05252A434DF6FF758C
:1037B0002B400D8906EA05352B434D8806EA053571
:1037C0002B430B4DA84202D00A4DA84208D14BF61C
:1037D000FF752C408D894FF6FF7606EA85152C4340
:1037E00084808283CD88A0F84050038470BD00009F
:1037F000002C0140003401400A460021818B4FF229
:10380000FF7319404FF6FF7303EA022319438183C4
:1038100070470021018041808180C1800181418108
:103820008181C1817047818570478186704701879A
:10383000704781877047A0F84010704700220288C7
:103840001D4B98420ED01D4B98420BD0B0F1804FCB
:1038500008D01B4B984205D01A4B984202D01A4B05
:10386000984204D14FF68F731A404B881A43174B76
:10387000984207D0164B984204D04FF6FF431A40A7
:10388000CB881A4302808B8883850B8803850A4B7B
:1038900098420BD0094B984208D00E4B984205D065
:1038A0000D4B984202D00D4B984201D10B7A038602
:1038B0000123838270470000002C01400034014046
:1038C0000004004000080040000C004000100040D0
:1038D0000014004000400140004401400048014005
:1038E0004FF6FF71818000210180C180418001720B
:1038F000704721B1028842F00402028004E002888D
:103900004FF6FB731A4002807047000000B587B085
:1039100001210420FFF700F801218803FEF7FCFFD6
:103920004FF40070ADF8180003208DF81A0018202D
:103930008DF81B0006A91D48FDF718FA4FF48060AA
:10394000ADF8180004208DF81B0006A91748FDF7F4
:103950000DFA25208DF8140000208DF815008DF843
:10396000160001208DF8170005A8FEF7CFFB4FF4D5
:10397000E13001900020ADF80800ADF80A00ADF884
:103980000C00ADF810000C20ADF80E0001A908489D
:1039900000F020FB012240F22551054800F0F4FA26
:1039A0000121034800F0ADFA07B000BD0008014056
:1039B0000038014070B50446002504E0605D00F069
:1039C00057FA681CC5B2605D0028F7D170BD0000D1
:1039D00000B587B001212020FEF79EFF0121480499
:1039E000FEF78AFF01210846FEF796FF0121082015
:1039F000FDF748FA2020ADF8180003208DF81A00D2
:103A000018208DF81B0006A91C48FDF7AFF94020CF
:103A1000ADF8180004208DF81B0006A91748FDF723
:103A2000A5F926208DF8140000208DF815008DF8DA
:103A3000160001208DF8170005A8FEF767FB4FF46C
:103A4000165001900020ADF80800ADF80A00ADF85E
:103A50000C00ADF810000C20ADF80E0001A90848CC
:103A600000F0B8FA012240F22551054800F08CFA26
:103A70000121034800F045FA07B000BD00140140E1
:103A80000044004010B540F22551284800F052FA99
:103A9000012849D1254800F009FBC4B22448007828
:103AA00048B9552C3AD123480470012022490870A6
:103AB0001F49087032E01E48007801282ED11E48A8
:103AC00001780078401C1C4A10701A484454104673
:103AD0000078022815D117484078532811D015488E
:103AE000407852280DD013484078552803D1012042
:103AF0001146087012E000200D4908700E49087048
:103B00000CE00D4800780B2808D10B210948FEF77E
:103B100043FE0020084908700549087040F225510D
:103B2000024800F0DFF900BF10BD0000004C00406B
:103B30005B000020680100205A00002000B587B01B
:103B400001211020FEF7E8FE0121C804FEF7D4FE93
:103B500018208DF81B004FF48060ADF8180003208A
:103B60008DF81A0006A91E48FDF700F948208DF8C7
:103B70001B004FF40060ADF8180003208DF81A0008
:103B800006A91748FDF7F2F834208DF8140001203B
:103B90008DF815008DF816008DF8170005A8FEF7B2
:103BA000B5FA4FF4165001900020ADF80800ADF8BA
:103BB0000A00ADF80C00ADF810000C20ADF80E00B6
:103BC00001A9084800F006FA012240F225510548F3
:103BD00000F0DAF90121034800F093F907B000BDC5
:103BE00000100140004C004010B540F22551214822
:103BF00000F0A0F901283CD11E4800F057FAC4B2E9
:103C00001D48007858B9402C2DD11C48007850BB75
:103C100001201949087000201949087023E016484E
:103C2000007801280FD1232C03D1022012490870FB
:103C300019E0144812490978445411480078401C8E
:103C40000F4908700FE00C48007802280BD1242C93
:103C500009D10020084908700A49094A1278885495
:103C600001200649087040F22551024800F03AF957
:103C700000BF10BD005000405C000020420000204A
:103C80005D0000208C00002000B587B001210805F0
:103C9000FEF732FE01211020FEF73EFE012120201A
:103CA000FEF73AFE18208DF81B004FF48050ADF857
:103CB000180003208DF81A0006A92048FDF756F8D1
:103CC00004208DF81B00ADF8180003208DF81A00B1
:103CD00006A91B48FDF74AF84FF416500290002041
:103CE000ADF814000C20ADF812000020ADF8100063
:103CF000ADF80E00ADF80C0002A9124800F06AF908
:103D0000012240F225510F4800F03EF94FF4A06027
:103D1000FEF734FA35208DF8040001208DF80700F5
:103D200000208DF805008DF8060001A8FEF7EEF9D9
:103D30000121044800F0E5F807B000BD0010014083
:103D4000001401400050004010B50378303B64245B
:103D500063434478303C04EB840403EB44048378ED
:103D6000303B23441BB20B800379303B6424634314
:103D70004479303C04EB840403EB44048379303B06
:103D800023441BB2138010BD70B505460E460024B7
:103D900004E0285D00F098F8601CC4B2B442F8DB7F
:103DA00070BD00000EB504A207CA8DE80700092106
:103DB0006846FFF7E9FF0EBD7E000801000201AB77
:103DC000CD00000010B50446FF2000F051F8204659
:103DD00000F04EF8FE2000F04BF810BD10B540F298
:103DE00025511E4800F0A6F8012836D11B4800F0E6
:103DF0005DF9C4B21A48007840B9FF2C27D10120E0
:103E00001749087000201749087020E0144800780E
:103E1000012810D1144813490978445411480078F6
:103E2000401C104908700846007808280FDD022061
:103E30000B4908700BE00A480078022807D1FE2CD5
:103E400005D100200649087001200849087040F299
:103E50002551024800F046F800BF10BD003801406F
:103E60005800002059000020F000002040000020F1
:103E700010B504460548048000BF80210348001F98
:103E800000F04BF80028F8D010BD000004380140C5
:103E900010B540F225510A4800F04CF801280ED127
:103EA000074800F003F9C4B2022C02D101200549F1
:103EB000087040F22551024800F014F800BF10BD10
:103EC000004400404100002010B5044604488480AE
:103ED00000BF8021024800F020F80028F9D010BD72
:103EE0000050004010B50022002340F66A14A142A1
:103EF00000D100BF0A1201249440A3B2DC43048025
:103F000010BD21B1828942F40052828104E082898D
:103F10004DF6FF731A408281704702460020B1F5CA
:103F2000007F00D100BF13880B400BB1012000E0DF
:103F30000020704770B502460024002300250020B1
:103F400040F66A16B14200D100BFC1F3421501F03C
:103F50001F03012606FA03F3012D02D1968933408F
:103F600006E0022D02D1168A334001E0968A3340E2
:103F70000C12012606FA04F41688344013B10CB171
:103F8000012000E0002070BDF0B5034600240026AB
:103F90000025002040F66A17B94200D100BF18463C
:103FA000C1F3421401F01F06012707FA06F5012CA0
:103FB00001D10C3004E0022C01D1103000E01430AB
:103FC0001AB107682F43076002E00768AF43076034
:103FD000F0BD00002DE9F04786B005460E460024EE
:103FE000A24600BFA1460027B08900B100BF2F46FE
:103FF0002C8A4CF6FF700440F08804432C82AC8974
:104000004EF6F3100440B0883189084371890843A3
:104010000443AC81AC8A4FF6FF400440B0890443AE
:10402000AC8201A8FEF788FC1F48874202D1DDF868
:1040300010A001E0DDF80CA0A88900F4004040B118
:104040000AEBCA0000EB0A1031684900B0FBF1F836
:1040500007E00AEBCA0000EB0A1031688900B0FBE8
:10406000F1F86420B8FBF0F004012009642101FBA1
:104070001089A88900F4004040B1322000EBC9004B
:10408000B0FBF1F000F00700044308E0322000EB41
:1040900009106421B0FBF1F000F00F0004432C8103
:1040A00006B0BDE8F087000000380140014688886E
:1040B000C0F308007047C1F3080282807047000017
:1040C00010B504460548048000BF80210348001F46
:1040D000FFF723FF0028F8D010BD0000044C00407B
:1040E00000BFFEE700B595B0012140F60400FEF7E1
:1040F00013FC01210846FEF7EFFB4FF40060ADF81A
:10410000500018208DF8530003208DF8520014A998
:104110003448FCF72BFE5920ADF848000020ADF8DC
:104120004400ADF84A00ADF8460011A92E48FFF74B
:1041300085FB6020ADF834000120ADF8360000208A
:10414000ADF83A00ADF83C000DA92748FFF716FB83
:1041500000212548FFF750FB2448FCF723FD2248A7
:104160004030029022480390102004904FF4907049
:104170000590002006908020079040000890800065
:10418000099000200A904FF400500B9000200C90F2
:1041900002A91648FCF7CBFD012202211348FCF7C7
:1041A000BDFD0E208DF8040000208DF805000120D3
:1041B0008DF806008DF8070001A8FDF7A7FF012282
:1041C00011030948FFF7A6F901210748FFF793F902
:1041D0004FF400610348FCF7A6FE642001F020F8CC
:1041E00015B000BD00080140002C01404400024011
:1041F000BC01002037B514460846064B6A462146E6
:1042000000F0E2F804466946002000F074FC204605
:104210003EBD0000F74A000802E008C8121F08C1AE
:10422000002AFAD170477047002001E001C1121F37
:10423000002AFBD170470000014908607047000068
:10424000880000202DE9FF5F82B00021DDE9043005
:10425000020DDDF840B0034318D044F61050A2F22E
:10426000FF3242431514119801281FD0A5EB0B0013
:10427000401C5FEA000A4FF000064E4FDFF838910D
:10428000B046504615D5CAF1000413E01198012438
:104290004AA3012801D16FEA0B010298119AC0E9E3
:1042A0000031C0E9024206B0BDE8F09FCBF100004A
:1042B000DFE704460021404A491842EB0450CDE9AB
:1042C000001012E0E00707D032463B464046494620
:1042D000FCF790F88046894632463B461046194620
:1042E000FCF788F806460F466410002CEAD1DDE999
:1042F0000401DDE90023BAF1000F06DAFCF77AF8D1
:1043000042464B46FCF776F805E0FCF7E5F84246F6
:104310004B46FCF7E1F804460E460022284BFCF71A
:1043200001FA03D84FF0FF30014607E00022254B89
:1043300020463146FBF7B7FFFCF799FB102409E054
:10434000002C0ADB0A220023FCF74AFA039B3032D6
:104350001A55641E50EA0102F2D1641C039AC4F19A
:1043600011031444119A012A03D0012208430DD1EC
:104370000AE0084304D000204FF0110B119072E7BF
:10438000A3EB0B056D1E0DE05B4504DD4FF0000255
:1043900005F1010504E003DA4FF00002A5F1010583
:1043A000002AECD002981199C0E90231C0E9004519
:1043B00079E70000000014400000F03F30000000EA
:1043C0000000F0430000E03F2DE9FF4F95B09B4611
:1043D0008946064600250FE2252877D10024274686
:1043E000F84A0121059400E0044316F8013F203B00
:1043F00001FA03F01042F7D130782A2811D06FF07B
:104400002F033078A0F13002092A16D8059A44F01B
:10441000020402EB820203EB42021044761C059078
:10442000EFE759F8042B0592002A03DA504244F4CE
:104430000054059044F00204761C30782E2816D1E2
:1044400016F8010F44F004042A280DD06FF02F0253
:104450003078A0F13003092B09D807EB870302EB72
:104460004303C718761CF3E759F8047B761C3078B1
:104470006C280FD006DC4C2817D068280DD06A288D
:1044800014D104E0742810D07A280FD10DE044F440
:1044900000140AE044F4801401E044F440147278FB
:1044A000824202D104F58014761C761C307866288E
:1044B0000BD013DC582877D009DC002875D04528AC
:1044C000F6D04628F4D047281AD19DE118E0632899
:1044D00035D0642879D0652812D195E1702873D041
:1044E00008DC6728F1D069286FD06E280DD06F28BE
:1044F00006D1B5E073282CD0752875D0782874D0F3
:104500005A46179990476D1C75E1C4F30250022872
:1045100009D003280DD0D9F8001004280DD00D6063
:1045200009F1040967E1D9F80010EA17C1E900525E
:10453000F6E7D9F800100D80F2E70D70F0E719F8F2
:10454000041B8DF8001000208DF80100EA460120C0
:1045500003E059F804AB4FF0FF3061074FF0000162
:1045600002D40DE008F101018846B9420FDA804516
:10457000F8DB1AF808100029F4D108E008F101016D
:1045800088468142FADB1AF808100029F6D105980E
:104590005B46A0EB080721463846179A00F094FACC
:1045A000284400EB080507E04DE029E10DE01AF88A
:1045B000010B5A4617999047B8F10108F7D25B46AC
:1045C00021463846179A13E142E00A220092C4F3CA
:1045D00002524FF0000A022A08D059F804CB032AED
:1045E0004FEAEC710AD00DE029E02AE009F1070159
:1045F00021F00702F2E802C1914609E00FFA8CFCB3
:104600004FEAEC71042A03D14FFA8CFC4FEAEC71AB
:10461000002907DA0A460021DCF1000C61EB0201F7
:104620002D2202E0220504D52B228DF80420012240
:1046300003E0E20701D02022F7E7904659E00A2183
:1046400002E010220DE010214FF0000A00910BE073
:1046500010224FF0000A44F004040827009203E0FF
:1046600008224FF0000A0092C4F30252022A05D039
:1046700059F804CB0021032A08D009E009F1070109
:1046800021F00702F2E802C1914605E01FFA8CFC16
:10469000042A01D10CF0FF0C4FF00008220728D5A6
:1046A000702806D0009B83F0100353EA0A0305D05C
:1046B0000EE040228DF80420012208E05CEA0102AD
:1046C00006D030228DF804208DF805000222904695
:1046D000009B83F0080353EA0A030AD15CEA010253
:1046E00001D1620705D530228DF804204FF0010872
:1046F0007F1E582804D034A003900EA802900DE02D
:1047000036A0F9E753466046009AFCF769F88446FC
:104710000398825C0298401E029002705CEA0100DD
:10472000F0D1029806A9081A00F1200A600702D504
:1047300024F4803400E00127574502DDA7EB0A008E
:1047400000E0002000EB0A01009005984144401A67
:104750000590E00306D45B462146179A059800F0C1
:10476000B3F90544002706E001A85A46C05D179931
:1047700090476D1C7F1C4745F6DBE0030CD55B467C
:104780002146179A059800F09FF9054404E030206F
:104790005A46179990476D1C0099481E00900029B1
:1047A000F5DC08E0029802995A460078491C02910B
:1047B000179990476D1CBAF10001AAF1010AF1DCCA
:1047C00065E10000092801003031323334353637D5
:1047D000383961626364656600000000303132334D
:1047E00034353637383941424344454600000000ED
:1047F00000F058F90544761C307800287FF4ECADC1
:1048000019B02846BDE8F08F620700D4062709F1E9
:10481000070222F0070CFCE80223E14603F00048FF
:104820005FEA080C02D00FF2702C0DE05FEA045C26
:1048300002D50FF2682C07E05FEAC47C02D00FF2C9
:10484000602C01E0AFF2700C4FF0FF3823F0004312
:10485000CDF850C065280CD006DC452809D0462884
:104860001DD047283DD13DE0662818D067287ED16D
:1048700038E00021112F01DB112000E0781CCDE988
:10488000000106A90EA8FFF7DDFCDDE90F010E9A75
:1048900003910021009207F1010A04914DE04FF0CD
:1048A00000400097CDE9011006A90EA8FFF7CAFC49
:1048B000DDE90F0203920E9B11990022DDF80CA096
:1048C0000093049211B9791C00EB010AB7EB0A00BE
:1048D00004D4C0F1FF3007F1010A0490AAEB0700ED
:1048E000019044E0012F00DA01270021112F01DDA2
:1048F000112000E03846CDE9000106A90EA8FFF717
:10490000A1FCDDE90F010E9A0391002104910092B0
:10491000BA4621070CD40399514500DA8A46BAF108
:10492000010F05DD009AAAF10101515C302908D080
:10493000B84202DA10F1040F06DA0121CDE90110C4
:1049400015E0AAF10101E9E7002805DC049901441A
:104950000491AAEB000102E0411C514500DD8A46AA
:104960000499401A401C01904FF00040029020072B
:1049700004D40198504501DBCDF8048000208DF867
:104980004F0002980DF14F07B0F1004F25D02B20BA
:104990000E9002984FF0020800280CDA4042029074
:1049A0002D200E9007E00A210298FBF703FF30311B
:1049B000029007F8011DB8F10001A8F10108F2DC2E
:1049C00002980028EFD1791E0E980870307800F018
:1049D000200040F0450007F8020D12A8C01B00F1AE
:1049E00007081498007800B1012000EB0A01019833
:1049F00001EBE07105984144401A401E0590E00328
:104A000006D45B462146179A059800F05DF80544E8
:104A10001498007818B15A46179990476D1CE00316
:104A200024D55B462146179A059800F04DF80544B9
:104A30001CE00498002807DBDDE90301884203DD60
:104A40000098405C179901E0179930205A4690472A
:104A5000049805F10105401C04900198401E019046
:104A600004D12E205A46179990476D1CBAF10001C7
:104A7000AAF1010ADDDC05E017F8010B5A46179987
:104A800090476D1CB8F10001A8F10108F4DC5B4609
:104A90002146179A0598ABE62D0000002B00000078
:104AA000200000002DE9F041044600251E4617466F
:104AB000880404D405E039462020B0476D1C641EEC
:104AC000F9D52846BDE8F0812DE9F04104460025DE
:104AD0001E469046C80301D5302700E020278804F1
:104AE00004D505E041463846B0476D1C641EF9D533
:104AF0002846BDE8F0810A68531C0B6010707047AF
:104B00000146002901DD88B27047484280B2FBE7C8
:104B10002DE9F04104460D462846FBF74CFD0746BB
:104B20002146FBF788FB06463046BDE8F0810000D1
:104B300010B5042006494880084640880988401A74
:104B400000B203498880B1F9040000F013FA10BDE7
:104B50007E00002010B505200649488008464088A0
:104B60000988401A00B203498880B1F9040000F0B6
:104B700001FA10BD7E00002010B50848B0F9000011
:104B800007494880084640880988401A00B204490D
:104B90008880B1F9040000F0EDF910BD8400002018
:104BA0007E00002010B5062006494880084640884F
:104BB0000988401A00B203498880B1F9040000F066
:104BC000D9F910BD7E00002010B5002006494880AC
:104BD000084640880988401A00B203498880B1F924
:104BE000040000F0C7F910BD7E00002010B587203A
:104BF00006494880084640880988401A00B203499F
:104C00008880B1F9040000F0B5F910BD7E000020E5
:104C100010B5A82006494880084640880988401AEF
:104C200000B203498880B1F9040000F0A3F910BD77
:104C30007E00002010B5A82006494880084640881C
:104C40000988401A00B203498880B1F9040000F0D5
:104C500091F910BD7E00002010B500200649488063
:104C6000084640880988401A00B203498880B1F993
:104C7000040000F07FF910BD7E00002010B519205F
:104C800006494880084640880988401A00B203490E
:104C90008880B1F9040000F06DF910BD7E0000209D
:104CA00010B5722006494880084640880988401A95
:104CB00000B203498880B1F9040000F05BF910BD2F
:104CC0007E00002010B50020064948800846408834
:104CD0000988401A00B203498880B1F9040000F045
:104CE00049F910BD7E00002010B5D2200649488049
:104CF000084640880988401A00B203498880B1F903
:104D0000040000F037F910BD7E00002010B55720D8
:104D100006494880084640880988401A00B203497D
:104D20008880B1F9040000F025F910BD7E00002054
:104D300010B5FCF779F9FDF7E7FEFDF735FF00F058
:104D40001DFA00F0EBF800200249088048808880B6
:104D500010BD00007E00002010B55F2008490870DB
:104D600008460078FDF766FE192000F04DFA044869
:104D70000078FDF75FFE192000F046FA10BD000034
:104D80006100002010B562200849087008460078CC
:104D9000FDF750FE192000F037FA04480078FDF7BF
:104DA00049FE192000F030FA10BD0000610000201B
:104DB00010B500F0E3F900F0B1F8FFF7CBFE4FF4C7
:104DC000967000F021FAFFF7C7FF4FF4C87000F0AB
:104DD0001BFAFFF789FF00F0DBF94FF4167000F0C3
:104DE00013FAFFF727FF00F0AFF8FFF77DFF00F0A1
:104DF00095F810BD10B500F0C1F900F08FF8FFF77D
:104E0000A9FE4FF4967000F0FFF9FFF7A5FF4FF4ED
:104E1000C87000F0F9F9FFF767FF00F0C3F94FF42D
:104E2000167000F0F1F9FFF705FF00F08DF8FFF7BD
:104E30005BFF00F073F810BD10B500F09FF900F0B3
:104E40006DF8FFF787FE4FF4967000F0DDF9FFF77D
:104E500083FF4FF4C87000F0D7F9FFF745FF00F06B
:104E6000ABF94FF4167000F0CFF9FFF7E3FE00F056
:104E70006BF8FFF739FF00F051F810BD10B500F0E6
:104E80007DF900F04BF8FFF765FE4FF4967000F0E7
:104E9000BBF9FFF761FF4FF4C87000F0B5F9FFF7F9
:104EA00023FF00F093F94FF4487000F0ADF9FFF7DD
:104EB000C1FE00F049F8FFF717FF00F02FF810BD12
:104EC00010B500F05BF900F029F8FFF743FE4FF44E
:104ED000967000F099F9FFF73FFF4FF4C87000F0AB
:104EE00093F9FFF701FF00F07BF94FF4966000F0B3
:104EF0008BF9FFF79FFE00F027F8FFF7F5FE00F0B3
:104F00000DF810BD10B5FFF7EFFE00F007F84FF4F5
:104F1000967000F079F900F03BF910BD10B50F2044
:104F20000849087008460078FDF784FD192000F054
:104F30006BF904480078FDF77DFD192000F064F955
:104F400010BD00006100002010B54620084908701F
:104F500008460078FDF76EFD192000F055F9044869
:104F60000078FDF767FD192000F04EF910BD000034
:104F70006100002070B5044600251C4800882044CC
:104F800000B21A4908800846B0F90000002804DB86
:104F90000846B0F90000D22806DD14480088001B3E
:104FA00000B21249088020E0002C03DD0120FDF74B
:104FB0009BF804E0604204B20020FDF795F8A501DB
:104FC0000B48056000200B490860DC23AA2211462B
:104FD0002846FCF7C9FE06E006480068044909684F
:104FE000884200D100E0F7E700BF70BD7E000020DE
:104FF000780000206800002010B5FFF775FEFFF76D
:10500000A3FF00F0C5F84FF4167000F0FDF8FFF7AD
:10501000FFFDFFF7A1FEC82000F0F6F8FFF764FEE1
:10502000C82000F0F1F800F0A9F8C82000F0ECF872
:10503000FFF7B8FDC82000F0E7F8FFF76FFFFFF7B4
:105040000BFE10BD10B5FFF74FFEFFF77DFF00F020
:10505000A9F84FF4167000F0D7F8FFF7D9FDFFF765
:105060007BFEC82000F0D0F8FFF73EFEC82000F01D
:10507000CBF800F083F8C82000F0C6F8FFF792FDE7
:10508000C82000F0C1F8FFF749FFFFF7E5FD10BDAC
:1050900010B5FFF729FEFFF757FF00F08DF84FF42A
:1050A000167000F0B1F8FFF7B3FDFFF755FEC8200A
:1050B00000F0AAF8FFF718FEC82000F0A5F800F0ED
:1050C0005DF84FF4FA7000F09FF8FFF76BFDC82011
:1050D00000F09AF8FFF722FFFFF7BEFD10BD10B5F4
:1050E000FFF702FEFFF730FF00F070F84FF4966014
:1050F00000F08AF8FFF78CFDFFF72EFEC82000F0C5
:1051000083F8FFF7F1FDC82000F07EF800F036F8D4
:105110004FF47A7000F078F8FFF744FDC82000F0F3
:1051200073F8FFF7FBFEFFF797FD10BD10B5FFF713
:10513000DBFDFFF709FF00F053F84FF4966000F035
:1051400063F8FFF765FDFFF707FEC82000F05CF885
:10515000FFF7CAFDC82000F057F800F00FF84FF431
:10516000966000F051F8FFF71DFDC82000F04CF8E4
:10517000FFF7D4FEFFF770FD10BD000010B5092049
:10518000024908800878FDF77BFC10BD6200002012
:1051900010B58420024908800878FDF771FC10BD25
:1051A0006200002010B5A020024908800878FDF7B1
:1051B00067FC10BD6200002010B5BA2002490880CB
:1051C0000878FDF75DFC10BD6200002010B5D62008
:1051D00002490880D720FDF753FC10BD6200002073
:1051E00010B5F22002490880FA20FDF749FC10BDF5
:1051F0006200002010B5FBF7BBFFFCF757F8FCF787
:10520000F5F8FCF79BF910BD00B5034603E04FF439
:105210007A7000F005F8181EA3F10103F7D100BD64
:1052200000EBC001C9004FF0E02251610021916103
:105230000521116100BF4FF0E021096901F48031BF
:105240000029F8D004214FF0E022116170470000DE
:105250002DE9F04704460D462046FBF7ACF98146A0
:105260002946FAF7E8FF0646FBF731FA21F000413C
:10527000074600220D4BFBF73DFA14D22046FBF700
:105280009AF981462946FAF7D6FF0646FBF71FFA38
:1052900021F000410746064A064BFBF743FA02D2CB
:1052A0000120BDE8F0870020FBE70000000034404B
:1052B0009A9999999999B93F1CB500F069F9FFF746
:1052C00099FFFFF735FDFFF7FDFC4FF47A70FFF70C
:1052D0009BFFFDF79BFBFFF707FD4FF47A70FFF78D
:1052E00093FF5A245A20FCF769FB06E06D480068DA
:1052F0006D490988884200D100E0F7E700BF002C23
:1053000006DD6A4800885A3000B26849088005E026
:10531000664800885A3800B2644908806348B0F98A
:105320000000B42804DD6FF059006049088008E0EF
:105330005E48B0F9000010F1B40F02DA5A205B4960
:1053400008806420FFF760FFFCF798F9A8E0584850
:105350000068FBF7BCF957A30822CDE90001002142
:105360000846FDF72EF856A3082210210020FDF76D
:1053700028F80820032300904C48B0F900201021A1
:105380004020FDF7F1F84948B0F90000FBF713F9A8
:105390008046474801684046FAF750FF0546FBF74C
:1053A00096F94AA30822CDE9000120210020FDF74B
:1053B00008F8FDF799F9FBF7DBFD01281ED1002065
:1053C0003A490880FFF790FCC820FFF71DFFFFF760
:1053D000D5FEC820FFF718FFFFF774FC4FF4FA70F2
:1053E000FFF712FF0220FEF7EDFC0220FEF7EAFCB9
:1053F0000220FEF7E7FC0220FEF7E4FCFDF768FB65
:10540000012804D100F02AF90120FEF7DBFCFDF7AA
:105410006DFB012844D14FF49670FFF7F5FE2F4A3B
:105420002F493048FEF790FC2C48B0F900202C485A
:10543000B0F900102CA000F0C7F80A20FFF7E4FE36
:105440002648B0F900202648B0F9001026A000F048
:10545000BBF80A20FFF7D8FE2048B0F9002020480A
:10546000B0F9001024A000F0AFF80A20FFF7CCFE3E
:105470001A48B0F900201A48B0F900101EA000F038
:10548000A3F80A20FFF7C0FE1448B0F90020144822
:10549000B0F9001014A000F097F80A20FFF7B4FE4E
:1054A00055E7000064000020740000200000002088
:1054B00048000020416E676C653D252E3366000074
:1054C00042617365416E676C653D00004572725FB5
:1054D000416E676C653D252E336600000400002098
:1054E000020000208C0000207474332E7478743D08
:1054F0002225642B2564220074332E7478743D2297
:1055000025642B256422000030B505460C4628464C
:10551000FFF7F6FA02462046FFF7F2FA03469A42F0
:1055200001DD104630BD934201DD1846FAE7002048
:10553000F8E72DE9F04106460F46FBF747FA041E4F
:105540000D4618BF0120284320F00040C0F17F60C5
:1055500000F1E040C00F0ED0301C18BF01203843CE
:1055600020F00040C0F17F6000F1E040C00F04BFB8
:105570000120FEF761FE20462946BDE8F08110B506
:105580000C230622114640F22B40FCF7B3FC10BD61
:1055900010B54FF4A060FCF7F1FDFBF703FDFBF73E
:1055A000CDFCFCF7B7FEFEF7B1F9FEF711FAFEF7F6
:1055B000C5FAFEF769FBFDF72BFF3220FFF724FE4B
:1055C000FEF790FD10BD00000FB438B505A800909F
:1055D0002048009A0499FEF70DFE002000901D4817
:1055E000FAF7C2FD85B200240DE01A48015D1A48A1
:1055F000FEF761FD00BF40211748FEF78EFC002832
:10560000F9D0601C84B2AC42EFDBFF211248FEF7F8
:1056100052FD00BF80211048FEF77FFC0028F9D022
:10562000FF210D48FEF747FD00BF80210A48FEF725
:1056300074FC0028F9D0FF210748FEF73CFD00BFAD
:1056400080210548FEF769FC0028F9D038BC5DF8D8
:1056500014FB0000F9000020004400402DE9F04F49
:1056600087B00026F84806780027B8460024A146EF
:10567000A2460020069005900490039000258346E2
:1056800002900190372E76D2DFE816F075003700D1
:1056900051006B00A500F7000D01560159015C0196
:1056A0005F01740162018F01650168016B016E0188
:1056B00071018F03920322013C0175007500750092
:1056C000750075007500750075007500750095030F
:1056D00096039703980399039A034304A800E703EA
:1056E000750075007500750075007500440445046B
:1056F00046049604950475004904D348477890F809
:10570000028048EA072420B206900020CF490860B2
:1057100000210698FCF7C6F906E0CC480068CC49A1
:105720000968884200D100E0F7E700BF3CE3C648C3
:1057300090F8019090F802A04AEA092420B205905E
:105740000020C24908600599FCF7ACF906E0BF48A3
:105750000068BF490968884200D100E0F7E700BF50
:10576000E4E7B948C07845B20020B8490860284647
:10577000FCF724F907E0FDE3B4480068B54909885F
:10578000884200D100E0F7E700BF002D06DDB248F7
:1057900000885A3000B2B049088005E0AE48008861
:1057A0005A3800B2AC490880AB48B0F90000B428C0
:1057B00004DD6FF05900A849088008E0A648B0F958
:1057C000000010F1B40F02DA5A20A34908806420C7
:1057D000FFF71AFDF4E3FEF7E5FAF1E39A484079A2
:1057E0009949097900EB012000B29C49088096484C
:1057F000C0799549897900EB012000B29849088069
:105800000846B0F900209548B0F9001095A0FFF7C0
:10581000DBFE0A20FFF7F8FC9148B0F900208F4822
:10582000B0F9001093A0FFF7CFFE0A20FFF7ECFCC1
:105830008B48B0F900208948B0F900108DA0FFF71F
:10584000C3FE0A20FFF7E0FC8548B0F9002083483A
:10585000B0F9001083A0FFF7B7FE0A20FFF7D4FCD1
:105860007F48B0F900207D48B0F900107DA0FFF717
:10587000ABFE0A20FFF7C8FCA2E37348407840B2B1
:10588000049000207149086000210498FCF754F945
:1058900006E06E4800686E490968884200D100E061
:1058A000F7E700BF8CE36848807840B2039000209F
:1058B000664908600399FCF73FF906E06348006811
:1058C00063490968884200D100E0F7E700BF77E349
:1058D0005D48477890F8028048EA072420B2069095
:1058E00000205A49086000210698FCF7F7F806E006
:1058F0005648006856490968884200D100E0F7E739
:1059000000BF5DE3504890F8019090F802A04AEA89
:10591000092420B2059000204C4908600599FCF745
:10592000DDF806E04948006849490968884200D125
:1059300000E0F7E700BF43E3FFF73AFA40E3FFF781
:1059400059FA3DE3FFF778FA3AE3FFF797FA37E3BE
:10595000FFF7B6FA34E3FFF74FFB31E3FFF772FBD3
:105960002EE3FFF795FB2BE3FFF7B9FB28E3FFF7E7
:10597000DDFB25E3344890F801B0BBF1060F11D2EE
:10598000DFE80BF0100306090C0DFFF71DF90AE024
:10599000FFF786F907E0FFF75FF904E003E0FFF7A0
:1059A000A3F900E000BF00BF0AE327484078029057
:1059B0002548807840B2019002980B2878D2DFE821
:1059C00000F07706276888A7C8E9FCFBFA000020EA
:1059D0001E4908602B49086000210198FCF762F815
:1059E000FFF7CCFBC820FFF70FFCFFF7EDF80CE04A
:1059F0001648006816490968884206D1214800689F
:105A000021490968884200D100E0F1E700BFCAE1FE
:105A100000200E4908601B49086000210198FCF72E
:105A200041F8C820FFF7F0FBFFF73AF92EE00748EE
:105A3000006807490968884228D11248006812495D
:105A40000968884222D122E0F00000206400002092
:105A500070000020740000200000002002000020E0
:105A60000400002074332E7478743D2225642B25A5
:105A7000642200007474332E7478743D2225642BE4
:105A8000256422006800002078000020CFE700BFD6
:105A900089E10020FD490860FD4908600021019866
:105AA000FCF700F8C820FFF7AFFBFFF7D5F80DE0D3
:105AB00078E1F6480068F7490968884206D1F44859
:105AC0000068F5490968884200D100E0F1E700BFAD
:105AD00069E10020ED490860ED4908600021019866
